{
  "contracts/utilities/lib-asset/LibAsset.sol": {
    "LibAsset": {
      "abi": [
        {
          "inputs": [],
          "name": "ERC1155_ASSET_CLASS",
          "outputs": [
            {
              "internalType": "bytes4",
              "name": "",
              "type": "bytes4"
            }
          ],
          "stateMutability": "view",
          "type": "function"
        },
        {
          "inputs": [],
          "name": "ERC20_ASSET_CLASS",
          "outputs": [
            {
              "internalType": "bytes4",
              "name": "",
              "type": "bytes4"
            }
          ],
          "stateMutability": "view",
          "type": "function"
        },
        {
          "inputs": [],
          "name": "ERC721_ASSET_CLASS",
          "outputs": [
            {
              "internalType": "bytes4",
              "name": "",
              "type": "bytes4"
            }
          ],
          "stateMutability": "view",
          "type": "function"
        },
        {
          "inputs": [],
          "name": "ETH_ASSET_CLASS",
          "outputs": [
            {
              "internalType": "bytes4",
              "name": "",
              "type": "bytes4"
            }
          ],
          "stateMutability": "view",
          "type": "function"
        }
      ],
      "evm": {
        "bytecode": {
          "linkReferences": {},
          "object": "61015e610026600b82828239805160001a60731461001957fe5b30600052607381538281f3fe73000000000000000000000000000000000000000030146080604052600436106100565760003560e01c8063405bf2751461005b5780636cd2c30a14610080578063b4797da214610088578063c214be5914610090575b600080fd5b610063610098565b604080516001600160e01b03199092168252519081900360200190f35b6100636100bc565b6100636100e0565b610063610104565b7f973bb64086f173ec8099b7ed3d43da984f4a332e4417a08bc6a286e6402b058681565b7f8ae85d849167ff996c04040c44924fd364217285e4cad818292c7ac37c0a345b81565b7faaaebeba3810b1e6b70781f14b2d72c1cb89c0b2b320c43bb67ff79f562f5ff481565b7f73ad2146b3d3a286642c794379d750360a2d53a3459a11b3e5d6cc900f55f44a8156fea264697066735822122049d7c48cf7e6dc6ab07b1838026b7b46ea3303406c412ef36bf61f74729678c564736f6c63430007060033",
          "opcodes": "PUSH2 0x15E PUSH2 0x26 PUSH1 0xB DUP3 DUP3 DUP3 CODECOPY DUP1 MLOAD PUSH1 0x0 BYTE PUSH1 0x73 EQ PUSH2 0x19 JUMPI INVALID JUMPDEST ADDRESS PUSH1 0x0 MSTORE PUSH1 0x73 DUP2 MSTORE8 DUP3 DUP2 RETURN INVALID PUSH20 0x0 ADDRESS EQ PUSH1 0x80 PUSH1 0x40 MSTORE PUSH1 0x4 CALLDATASIZE LT PUSH2 0x56 JUMPI PUSH1 0x0 CALLDATALOAD PUSH1 0xE0 SHR DUP1 PUSH4 0x405BF275 EQ PUSH2 0x5B JUMPI DUP1 PUSH4 0x6CD2C30A EQ PUSH2 0x80 JUMPI DUP1 PUSH4 0xB4797DA2 EQ PUSH2 0x88 JUMPI DUP1 PUSH4 0xC214BE59 EQ PUSH2 0x90 JUMPI JUMPDEST PUSH1 0x0 DUP1 REVERT JUMPDEST PUSH2 0x63 PUSH2 0x98 JUMP JUMPDEST PUSH1 0x40 DUP1 MLOAD PUSH1 0x1 PUSH1 0x1 PUSH1 0xE0 SHL SUB NOT SWAP1 SWAP3 AND DUP3 MSTORE MLOAD SWAP1 DUP2 SWAP1 SUB PUSH1 0x20 ADD SWAP1 RETURN JUMPDEST PUSH2 0x63 PUSH2 0xBC JUMP JUMPDEST PUSH2 0x63 PUSH2 0xE0 JUMP JUMPDEST PUSH2 0x63 PUSH2 0x104 JUMP JUMPDEST PUSH32 0x973BB64086F173EC8099B7ED3D43DA984F4A332E4417A08BC6A286E6402B0586 DUP2 JUMP JUMPDEST PUSH32 0x8AE85D849167FF996C04040C44924FD364217285E4CAD818292C7AC37C0A345B DUP2 JUMP JUMPDEST PUSH32 0xAAAEBEBA3810B1E6B70781F14B2D72C1CB89C0B2B320C43BB67FF79F562F5FF4 DUP2 JUMP JUMPDEST PUSH32 0x73AD2146B3D3A286642C794379D750360A2D53A3459A11B3E5D6CC900F55F44A DUP2 JUMP INVALID LOG2 PUSH5 0x6970667358 0x22 SLT KECCAK256 0x49 0xD7 0xC4 DUP13 0xF7 0xE6 0xDC PUSH11 0xB07B1838026B7B46EA3303 BLOCKHASH PUSH13 0x412EF36BF61F74729678C56473 PUSH16 0x6C634300070600330000000000000000 "
        },
        "methodIdentifiers": {
          "ERC1155_ASSET_CLASS()": "405bf275",
          "ERC20_ASSET_CLASS()": "6cd2c30a",
          "ERC721_ASSET_CLASS()": "c214be59",
          "ETH_ASSET_CLASS()": "b4797da2"
        }
      }
    }
  }
}