{
  "contracts/utilities/panda-royalities/LibPart.sol": {
    "LibPart": {
      "abi": [
        {
          "inputs": [],
          "name": "TYPE_HASH",
          "outputs": [
            {
              "internalType": "bytes32",
              "name": "",
              "type": "bytes32"
            }
          ],
          "stateMutability": "view",
          "type": "function"
        }
      ],
      "evm": {
        "bytecode": {
          "linkReferences": {},
          "object": "60aa610024600b82828239805160001a607314601757fe5b30600052607381538281f3fe730000000000000000000000000000000000000000301460806040526004361060335760003560e01c806364d4c819146038575b600080fd5b603e6050565b60408051918252519081900360200190f35b7f397e04204c1e1a60ee8724b71f8244e10ab5f2e9009854d80f602bda21b59ebb8156fea26469706673582212204b8decd2e99ef897654d99a9c2bb24f4abb065cec1d43919ead7b486d72690e064736f6c63430007060033",
          "opcodes": "PUSH1 0xAA PUSH2 0x24 PUSH1 0xB DUP3 DUP3 DUP3 CODECOPY DUP1 MLOAD PUSH1 0x0 BYTE PUSH1 0x73 EQ PUSH1 0x17 JUMPI INVALID JUMPDEST ADDRESS PUSH1 0x0 MSTORE PUSH1 0x73 DUP2 MSTORE8 DUP3 DUP2 RETURN INVALID PUSH20 0x0 ADDRESS EQ PUSH1 0x80 PUSH1 0x40 MSTORE PUSH1 0x4 CALLDATASIZE LT PUSH1 0x33 JUMPI PUSH1 0x0 CALLDATALOAD PUSH1 0xE0 SHR DUP1 PUSH4 0x64D4C819 EQ PUSH1 0x38 JUMPI JUMPDEST PUSH1 0x0 DUP1 REVERT JUMPDEST PUSH1 0x3E PUSH1 0x50 JUMP JUMPDEST PUSH1 0x40 DUP1 MLOAD SWAP2 DUP3 MSTORE MLOAD SWAP1 DUP2 SWAP1 SUB PUSH1 0x20 ADD SWAP1 RETURN JUMPDEST PUSH32 0x397E04204C1E1A60EE8724B71F8244E10AB5F2E9009854D80F602BDA21B59EBB DUP2 JUMP INVALID LOG2 PUSH5 0x6970667358 0x22 SLT KECCAK256 0x4B DUP14 0xEC 0xD2 0xE9 SWAP15 0xF8 SWAP8 PUSH6 0x4D99A9C2BB24 DELEGATECALL 0xAB 0xB0 PUSH6 0xCEC1D43919EA 0xD7 0xB4 DUP7 0xD7 0x26 SWAP1 0xE0 PUSH5 0x736F6C6343 STOP SMOD MOD STOP CALLER "
        },
        "methodIdentifiers": {
          "TYPE_HASH()": "64d4c819"
        }
      }
    }
  }
}