{
  "_format": "hh-sol-artifact-1",
  "contractName": "LibPart",
  "sourceName": "contracts/utilities/panda-royalities/LibPart.sol",
  "abi": [
    {
      "inputs": [],
      "name": "TYPE_HASH",
      "outputs": [
        {
          "internalType": "bytes32",
          "name": "",
          "type": "bytes32"
        }
      ],
      "stateMutability": "view",
      "type": "function"
    }
  ],
  "bytecode": "0x60aa610024600b82828239805160001a607314601757fe5b30600052607381538281f3fe730000000000000000000000000000000000000000301460806040526004361060335760003560e01c806364d4c819146038575b600080fd5b603e6050565b60408051918252519081900360200190f35b7f397e04204c1e1a60ee8724b71f8244e10ab5f2e9009854d80f602bda21b59ebb8156fea26469706673582212204b8decd2e99ef897654d99a9c2bb24f4abb065cec1d43919ead7b486d72690e064736f6c63430007060033",
  "linkReferences": {},
  "deployedLinkReferences": {}
}